:1000000033C0000039C0000037C0000035C0000018
:1000100033C0000031C000002FC000002DC0000020
:100020002BC0000029C0000027C0000025C0000030
:1000300023C0000021C000001FC000001DC0000040
:100040001BC0000019C0000017C0000015C0000050
:1000500013C0000011C000000FC000000DC0000060
:100060000BC0000009C0000011241FBECFEFD8E074
:10007000DEBFCDBFDCD038C1C3CF0F931F93CF936A
:10008000DF938C01009749F0C0E0D0E0C2D0A9D046
:10009000AAD02196C017D107C9F7DF91CF911F9140
:1000A0000F910895C0E090E003C0B3D09C2FC82FFB
:1000B000953AD9F7CA35C9F788E391E0DEDFA9D0D0
:1000C000C0E0F3CFC0E090E09A3541F48FE58C0FAB
:1000D000823068F080E58C0F833048F09AD09C2FF6
:1000E000C82F9A35D9F78FE58C0F823098F788E3BF
:1000F00091E0C3DF8ED0C0E0F1CFC0E090E003C05C
:1001000088D09C2FC82F993CD9F7CA3DC9F781D018
:10011000C82FD0E0DC2FCC277CD09E01282BC90132
:10012000ACDF77D0C0E0ECCF509A5B98589A4A99F0
:100130000AC04C9904C083E053985898089582E00F
:1001400053985898089581E0539858980895239AA1
:100150002498259A229A9C0140E050E060E87EE3D2
:1001600080E090E083D08DB5203431054105510504
:1001700014F52032310541055105C4F42031310513
:10018000410551050CF52830310541055105C4F4F0
:100190002430310541055105E4F422303105410593
:1001A0005105DCF08E7F8DBD80E503C08E7F8DBD57
:1001B00082E58CBD08958E7F8DBD83E58CBD08954D
:1001C0008E7F8DBD81E5F5CF81608DBD82E58CBDD3
:1001D000089581608DBD81E5ECCF81608DBD80E5A6
:1001E000E8CF8EBD08950DB407FEFDCF8EB50895FE
:1001F0001092C50082E28093C400E0ECF0E08081C0
:100200008260808388E18093C10086E08093C20091
:1002100008958091C00087FFFCCF8091C6000895AB
:100220009091C00095FFFCCF8093C600089514BE46
:1002300088E10FB6F89480936000109260000FBEC2
:1002400080E88093610010926100D2DF8DE790E03A
:100250007EDF6ADF813039F0823039F0833021F07F
:1002600080E090E008951EDF48DF2CDF052E97FB2D
:1002700016F400940FD057FD05D014D007FC02D01F
:1002800046F408C050954095309521953F4F4F4F0B
:100290005F4F089590958095709561957F4F8F4F32
:1002A0009F4F0895A1E21A2EAA1BBB1BFD010DC092
:1002B000AA1FBB1FEE1FFF1FA217B307E407F50716
:1002C00020F0A21BB30BE40BF50B661F771F881FF2
:1002D000991F1A9469F760957095809590959B0188
:0C02E000AC01BD01CF010895F894FFCFE0
:00000001FF
